:020000040800F2
:1000000000500020E91700087D1900087F1900083A
:1000100081190008831900088519000800000000F4
:100020000000000000000000000000008719000828
:1000300089190008000000008B1900088D190008BC
:10004000311800083118000831180008311800086C
:10005000311800083118000831180008311800085C
:10006000311800083118000831180008311800084C
:10007000311800083118000831180008311800083C
:10008000311800083118000831180008311800082C
:10009000311800083118000831180008311800081C
:1000A000311800083118000831180008311800080C
:1000B000D917000831180008311800083118000855
:1000C00031180008311800083118000831180008EC
:1000D00031180008311800083118000831180008DC
:1000E000311800083118000831180008000000001D
:1000F0000000000000000000000000000000000000
:0C01000000000000000000005FF808F1A3
:10011000034613F8012B002AFBD1181A0138704747
:1001200081F0004102E000BF83F0004330B54FEAA8
:1001300041044FEA430594EA050F08BF90EA020F15
:100140001FBF54EA000C55EA020C7FEA645C7FEAA8
:10015000655C00F0E2804FEA5454D4EB5555B8BFCB
:100160006D420CDD2C4480EA020281EA030382EA3C
:10017000000083EA010180EA020281EA0303362DCE
:1001800088BF30BD11F0004F4FEA01314FF4801CA1
:100190004CEA113102D0404261EB410113F0004FB3
:1001A0004FEA03334CEA133302D0524263EB43036A
:1001B00094EA050F00F0A780A4F10104D5F1200E08
:1001C0000DDB02FA0EFC22FA05F2801841F1000163
:1001D00003FA0EF2801843FA05F359410EE0A5F137
:1001E00020050EF1200E012A03FA0EFC28BF4CF068
:1001F000020C43FA05F3C01851EBE37101F000451E
:1002000007D54FF0000EDCF1000C7EEB00006EEB2A
:100210000101B1F5801F1BD3B1F5001F0CD34908B4
:100220005FEA30004FEA3C0C04F101044FEA44520B
:1002300012F5800F80F09A80BCF1004F08BF5FEA92
:10024000500C50F1000041EB045141EA050130BD72
:100250005FEA4C0C404141EB0101013C28BFB1F584
:10026000801FE9D291F0000F04BF01460020B1FACF
:1002700081F308BF2033A3F10B03B3F120020CDAA2
:100280000C3208DD02F1140CC2F10C0201FA0CF080
:1002900021FA02F10CE002F11402D8BFC2F1200CE5
:1002A00001FA02F120FA0CFCDCBF41EA0C0190409B
:1002B000E41AA2BF01EB0451294330BD6FEA0404E4
:1002C0001F3C1CDA0C340EDC04F11404C4F12002CF
:1002D00020FA04F001FA02F340EA030021FA04F3E1
:1002E00045EA030130BDC4F10C04C4F1200220FA38
:1002F00002F001FA04F340EA0300294630BD21FA76
:1003000004F0294630BD94F0000F83F4801306BF3B
:1003100081F480110134013D4EE77FEA645C18BF2F
:100320007FEA655C29D094EA050F08BF90EA020FC6
:1003300005D054EA000C04BF1946104630BD91EABE
:10034000030F1EBF0021002030BD5FEA545C05D1C1
:100350004000494128BF41F0004130BD14F5800400
:100360003CBF01F5801130BD01F0004545F0FE4174
:1003700041F470014FF0000030BD7FEA645C1ABFA9
:10038000194610467FEA655C1CBF0B46024650EAE0
:10039000013406BF52EA033591EA030F41F400210C
:1003A00030BD00BF90F0000F04BF0021704730B592
:1003B0004FF4806404F132044FF000054FF0000167
:1003C00050E700BF90F0000F04BF0021704730B528
:1003D0004FF4806404F1320410F0004548BF4042FD
:1003E0004FF000013EE700BF42004FEAE2014FEA52
:1003F00031014FEA02701FBF12F07F4393F07F4F2D
:1004000081F06051704732F07F4208BF704793F02F
:100410007F4F04BF41F40021704730B54FF4607442
:1004200001F0004521F000411CE700BF50EA010245
:1004300008BF704730B54FF000050AE050EA0102EE
:1004400008BF704730B511F0004502D5404261EB5E
:1004500041014FF4806404F132045FEA915C3FF49F
:10046000D8AE4FF003025FEADC0C18BF03325FEA3C
:10047000DC0C18BF033202EBDC02C2F1200300FAED
:1004800003FC20FA02F001FA03FE40EA0E0021FA12
:1004900002F11444BDE600BF70B54FF0FF0C4CF400
:1004A000E06C1CEA11541DBF1CEA135594EA0C0FB2
:1004B00095EA0C0F00F0DEF82C4481EA030621EAED
:1004C0004C5123EA4C5350EA013518BF52EA033528
:1004D00041F4801143F4801338D0A0FB02CE4FF0DA
:1004E0000005E1FB02E506F00042E0FB03E54FF00A
:1004F0000006E1FB03569CF0000F18BF4EF0010E02
:10050000A4F1FF04B6F5007F64F5407404D25FEAFD
:100510004E0E6D4146EB060642EAC62141EA5551B0
:100520004FEAC52040EA5E504FEACE2EB4F1FD0CF2
:1005300088BFBCF5E06F1ED8BEF1004F08BF5FEA70
:10054000500E50F1000041EB045170BD06F0004622
:1005500046EA010140EA020081EA0301B4EB5C04CF
:10056000C2BFD4EB0C0541EA045170BD41F48011C7
:100570004FF0000E013C00F3AB8014F1360FDEBFEC
:10058000002001F0004170BDC4F10004203C35DAC8
:100590000C341BDC04F11404C4F1200500FA05F34B
:1005A00020FA04F001FA05F240EA020001F00042EC
:1005B00021F0004110EBD37021FA04F642EB060162
:1005C0005EEA430E08BF20EAD37070BDC4F10C048C
:1005D000C4F1200500FA04F320FA05F001FA04F250
:1005E00040EA020001F0004110EBD37041F100013C
:1005F0005EEA430E08BF20EAD37070BDC4F1200547
:1006000000FA05F24EEA020E20FA04F301FA05F2AE
:1006100043EA020321FA04F001F0004121FA04F256
:1006200020EA020000EBD3705EEA430E08BF20EA26
:10063000D37070BD94F0000F0FD101F00046400060
:1006400041EB010111F4801F08BF013CF7D041EAE2
:10065000060195F0000F18BF704703F000465200E6
:1006600043EB030313F4801F08BF013DF7D043EAB7
:100670000603704794EA0C0F0CEA135518BF95EA6D
:100680000C0F0CD050EA410618BF52EA4306D1D1F4
:1006900081EA030101F000414FF0000070BD50EA13
:1006A000410606BF1046194652EA430619D094EA9D
:1006B0000C0F02D150EA013613D195EA0C0F05D187
:1006C00052EA03361CBF104619460AD181EA0301DB
:1006D00001F0004141F0FE4141F470014FF0000093
:1006E00070BD41F0FE4141F4780170BD70B54FF02E
:1006F000FF0C4CF4E06C1CEA11541DBF1CEA1355AE
:1007000094EA0C0F95EA0C0F00F0A7F8A4EB05048F
:1007100081EA030E52EA03354FEA013100F0888086
:100720004FEA03334FF0805545EA131343EA12634F
:100730004FEA022245EA111545EA10654FEA002604
:100740000EF000419D4208BF964244F1FD0404F5BD
:10075000407402D25B084FEA3202B61A65EB030519
:100760005B084FEA32024FF480104FF4002CB6EBD6
:10077000020E75EB030E22BFB61A754640EA0C0056
:100780005B084FEA3202B6EB020E75EB030E22BF96
:10079000B61A754640EA5C005B084FEA3202B6EBD7
:1007A000020E75EB030E22BFB61A754640EA9C0096
:1007B0005B084FEA3202B6EB020E75EB030E22BF66
:1007C000B61A754640EADC0055EA060E18D04FEA24
:1007D000051545EA16754FEA06164FEAC30343EAC4
:1007E00052734FEAC2025FEA1C1CC0D111F4801F91
:1007F0000BD141EA00014FF000004FF0004CB6E78A
:1008000011F4801F04BF01430020B4F1FD0C88BF28
:10081000BCF5E06F3FF6AFAEB5EB030C04BFB6EB33
:10082000020C5FEA500C50F1000041EB045170BD26
:100830000EF0004E4EEA113114EB5C04C2BFD4EB53
:100840000C0541EA045170BD41F480114FF0000ED7
:10085000013C90E645EA060E8DE60CEA135594EA53
:100860000C0F08BF95EA0C0F3FF43BAF94EA0C0F56
:100870000AD150EA01347FF434AF95EA0C0F7FF4CB
:1008800025AF104619462CE795EA0C0F06D152EA1F
:1008900003353FF4FDAE1046194622E750EA410603
:1008A00018BF52EA43067FF4C5AE50EA41047FF414
:1008B0000DAF52EA43057FF4EBAE12E74FF0FF3C79
:1008C00006E000BF4FF0010C02E000BF4FF0010C4A
:1008D0004DF804CD4FEA410C7FEA6C5C4FEA430CC3
:1008E00018BF7FEA6C5C1BD001B050EA410C0CBF12
:1008F00052EA430C91EA030F02BF90EA020F002074
:10090000704710F1000F91EA030F58BF994208BFDA
:1009100090422CBFD8176FEAE37040F00100704797
:100920004FEA410C7FEA6C5C02D150EA013C07D1EE
:100930004FEA430C7FEA6C5CD6D152EA033CD3D039
:100940005DF8040B704700BF8446104662468C4633
:100950001946634600E000BF01B5FFF7B7FF002866
:1009600048BF10F1000F01BD4DF808EDFFF7F4FF8F
:100970000CBF012000205DF808FB00BF4DF808ED1A
:10098000FFF7EAFF34BF012000205DF808FB00BF3D
:100990004DF808EDFFF7E0FF94BF012000205DF85F
:1009A00008FB00BF4DF808EDFFF7CEFF94BF012014
:1009B00000205DF808FB00BF4DF808EDFFF7C4FF0D
:1009C00034BF012000205DF808FB00BF4FEA410C56
:1009D0007FEA6C5C02D150EA013C0AD14FEA430C39
:1009E0007FEA6C5C02D152EA033C02D14FF0000076
:1009F00070474FF0010070474FEA410212F50012B4
:100A000015D211D56FF47873B3EB625212D94FEA55
:100A1000C12343F0004343EA505311F0004F23FA3F
:100A200002F018BF404270474FF00000704750EA94
:100A3000013005D111F0004008BF6FF00040704751
:100A40004FF00000704700BF0348044B834202D0C0
:100A5000034B03B118477047D4010020D401002094
:100A6000000000000548064B1B1AD90F01EBA3013B
:100A7000491002D0034B03B118477047D40100203E
:100A8000D40100200000000010B5064C237843B9C3
:100A9000FFF7DAFF044B13B10448AFF300800123E2
:100AA000237010BDD401002000000000C0430008E6
:100AB00008B5054B1BB105490548AFF30080BDE8FB
:100AC0000840FFF7CFBF00BF00000000D8010020A2
:100AD000C043000808B5074A136843F010031360C9
:100AE000032000F067F80F2000F022FE00F024FF42
:100AF000002008BD00200240034A1168034B1B7808
:100B00000B441360704700BFF0010020000000207C
:100B1000014B1868704700BFF001002038B504464B
:100B2000FFF7F6FF0546B4F1FF3F02D0044B1B78F8
:100B30001C44FFF7EDFF401BA042FAD338BD00BFB5
:100B400000000020002808DB0901C9B200F1604064
:100B500000F5614080F80013704700F00F000901B4
:100B6000C9B2014B1954704714ED00E000B500F014
:100B70000700A0F1030CBCF1040F07D8C0F1070E69
:100B80000430062806D84FF0000C03E04FF0040EA6
:100B90004FF0000C4FF0FF3303FA0EF021EA000192
:100BA00001FA0CF103FA0CF322EA030241EA020013
:100BB00000BD0000074AD36823F4E0631B041B0C4C
:100BC000000200F4E060034343F0BF6343F40033EA
:100BD000D360704700ED00E010B50446054BD868BF
:100BE000C0F30220FFF7C2FF01462046FFF7AAFF2D
:100BF00010BD00BF00ED00E0002807DB00F01F0281
:100C0000400901239340024A42F82030704700BF58
:100C100000E100E070B582B04FF0000EF446A4E0B1
:100C2000012B28D0022B03D1CB6803F1080E24E05E
:100C30001BBB8B68002B65D0012B5CD042614FF051
:100C4000080E1AE0664DAB42F3D00CD8A5F580151E
:100C5000AB42EED005F57025AB42EAD0A5F5801584
:100C6000AB42E6D009E05F4DAB42E2D005F58035FE
:100C7000AB42DED001E0D1F80CE0FF2C45D80646AF
:100C80004FEA8C0233680F25954023EA05030EFADC
:100C900002F2134333604B6813F0805F63D0524B12
:100CA0009A6942F001029A619B6903F00103019382
:100CB000019B4FEA9C02951C4C4B53F825600CF0AD
:100CC0000305AD000F23AB4026EA0306484B9842CC
:100CD00022D003F58063984263D003F58063984285
:100CE00061D003F58063984214D0042315E0CB68EB
:100CF00003F10C0EC1E702614FF0080EBDE74FF0A3
:100D0000000EBAE74FF0040EB7E7061DACF108027B
:100D10009200B7E7032300E00023AB4033430232E5
:100D2000324D45F822304B6813F4801F3DD0314AD4
:100D30009368234393604B6813F4001F3BD02D4A04
:100D4000D3682343D3604B6813F4003F39D0294A5A
:100D50005368234353604B6813F4803F37D0254AD0
:100D60001368234313600CF1010C0B6833FA0CF287
:100D700033D0012202FA0CF203EA020432EA03033E
:100D8000F1D14B68032BBAD07FF64AAF122BAED00D
:100D90003FF658AF112B7FF470AFCB6803F1040E10
:100DA0006BE70123B9E70223B7E7124A936823EA06
:100DB00004039360BFE70F4AD36823EA0403D360B8
:100DC000C1E70C4A536823EA04035360C3E7094AA6
:100DD000136823EA04031360C5E702B070BD00BFC7
:100DE00000002210000031100010024000000140FD
:100DF00000080140000401400AB101617047090484
:100E000001617047C36801EA030221EA030141EA74
:100E1000024101617047000082B0084B1B68084A1C
:100E2000A2FB03235B0A00FB03F3019300BF019BBA
:100E30005A1E0192002BF9D102B070470800002021
:100E4000D34D6210002800F0F38170B582B00446E3
:100E5000036813F0010F2CD09A4B5B6803F00C036E
:100E6000042B1DD0974B5B6803F00C03082B12D0AA
:100E70006368B3F5803F41D0002B55D103F1804327
:100E800003F504331A6822F480321A601A6822F4D7
:100E900080221A6037E08B4B5B6813F4803FE7D009
:100EA000884B1B6813F4003F03D06368002B00F0ED
:100EB000C181236813F0020F75D0824B5B6813F079
:100EC0000C0F5FD07F4B5B6803F00C03082B54D0F2
:100ED0002369002B00F08A807B4B01221A60FFF708
:100EE00017FE0546774B1B6813F0020F75D1FFF70D
:100EF0000FFE401B0228F5D90320A0E1714A1368B8
:100F000043F480331360636843B3FFF701FE054683
:100F10006C4B1B6813F4003FCBD1FFF7F9FD401B6E
:100F20006428F5D903208AE1B3F5A02F09D0654BD9
:100F30001A6822F480321A601A6822F480221A6039
:100F4000E1E703F18043A3F53C331A6842F48022C1
:100F50001A601A6842F480321A60D4E7FFF7D8FDAD
:100F60000546584B1B6813F4003FA2D0FFF7D0FD95
:100F7000401B6428F5D9032061E1524B5B6813F4F0
:100F8000803FA5D14F4B1B6813F0020F03D023699C
:100F9000012B40F051814B4A136823F0F80361693B
:100FA00043EAC1031360236813F0080F33D0A36929
:100FB000002B5DD0444B0122C3F88024FFF7A8FD2D
:100FC0000546404B5B6A13F0020F21D1FFF7A0FDED
:100FD000401B0228F5D9032031E13A4A136823F077
:100FE000F803616943EAC1031360DCE7364B002272
:100FF0001A60FFF78DFD0546324B1B6813F0020F98
:10100000D1D0FFF785FD401B0228F5D9032016E15A
:101010000120FFF701FF236813F0040F00F0988010
:10102000284BDB6913F0805F35D1264BDA6942F03B
:101030008052DA61DB6903F080530193019B012345
:101040001E46224B1B6813F4807F27D0E368012BD8
:101050003ED0002B54D103F1804303F504331A6AC8
:1010600022F001021A621A6A22F004021A6234E0C3
:10107000154B0022C3F88024FFF74AFD0546114BAB
:101080005B6A13F0020FC6D0FFF742FD401B022837
:10109000F5D90320D3E000231E46D2E70B4A13689C
:1010A00043F480731360FFF733FD0546074B1B685D
:1010B00013F4807FCAD1FFF72BFD401B6428F5D9BC
:1010C0000320BCE0001002400000424200700040DB
:1010D0005F4A136A43F001031362E36833B3FFF717
:1010E00017FD05465A4B1B6A13F0020F2FD1FFF76D
:1010F0000FFD401B41F288339842F3D903209EE054
:10110000052B09D0524B1A6A22F001021A621A6AA0
:1011100022F004021A62E0E74D4B1A6A42F0040220
:101120001A621A6A42F001021A62D6E7FFF7F0FC6F
:101130000546474B1B6A13F0020F08D0FFF7E8FC87
:10114000401B41F288339842F3D9032077E0E6B997
:10115000E369002B72D03E4A526802F00C02082A62
:1011600056D0022B17D03B4B00221A66FFF7D0FC5B
:101170000446374B1B6813F0007F47D0FFF7C8FCCD
:10118000001B0228F5D9032059E0314AD36923F026
:101190008053D361DCE72F4B00221A66FFF7B8FCBF
:1011A00005462B4B1B6813F0007F06D0FFF7B0FC01
:1011B000401B0228F5D9032041E0236AB3F5803FA4
:1011C0001AD023494B6823F47413226A606A0243DD
:1011D00013434B601F4B01221A66FFF799FC04462C
:1011E0001B4B1B6813F0007F0ED1FFF791FC001B17
:1011F0000228F5D9032022E0154A536823F400336E
:10120000A1680B435360DCE7002018E0002016E0E3
:10121000012B16D00E4B5B6803F48031226A914299
:1012200011D103F47013626A93420ED1002006E0DC
:1012300001207047012002E0012000E0184602B0C2
:1012400070BD0120FBE70120F9E70120F7E700BFAF
:1012500000100240000042420F4B5B6803F00C029A
:10126000082A01D00D487047C3F383420C49885CBB
:1012700013F4803F0BD0084B5B68C3F34043094A2B
:10128000D35C064A02FB00F0B0FBF3F07047064B5C
:1012900003FB00F0704700BF0010024000127A000C
:1012A000DC430008D843000800093D00002800F096
:1012B000A08070B50D460446524B1B6803F007032F
:1012C0008B420BD24F4A136823F007030B43136082
:1012D000136803F007038B4240F08D80236813F0FE
:1012E000020F17D013F0040F04D0474A536843F499
:1012F000E0635360236813F0080F04D0424A536838
:1013000043F460535360404A536823F0F003A168EC
:101310000B435360236813F0010F31D06368012B36
:1013200020D0022B25D0384A126812F0020F64D068
:1013300035494A6822F0030213434B60FFF7E8FB8C
:101340000646314B5B6803F00C036268B3EB820F17
:1013500016D0FFF7DDFB801B41F288339842F0D9AD
:10136000032045E0284A126812F4003FE0D1012032
:101370003EE0254A126812F0007FD9D1012037E003
:10138000204B1B6803F00703AB420AD91D4A1368C0
:1013900023F007032B431360136803F00703AB42EA
:1013A0002DD1236813F0040F06D0174A536823F495
:1013B000E063E1680B435360236813F0080F07D024
:1013C000114A536823F46053216943EAC10353600F
:1013D000FFF742FF0C4B5B68C3F303130B4AD35C6C
:1013E000D8400B4B18600B4B186800F0A1F9002097
:1013F00070BD012070470120FAE70120F8E70120C5
:10140000F6E700BF0020024000100240F44300084D
:101410000800002004000020014B1868704700BF3E
:101420000800002008B5FFF7F7FF044B5B68C3F323
:101430000223034AD35CD84008BD00BF001002401D
:10144000EC4300080F2303600B4B5A6802F00302C1
:1014500042605A6802F0F00282605A6802F4E06268
:10146000C2605B68DB0803F4E0630361034B1B6845
:1014700003F007030B607047001002400020024099
:101480007047000090F83D30012B27D1022380F8EF
:101490003D300268D36843F00103D3600368114A0A
:1014A000934210D0B3F1804F0DD0A2F59432934205
:1014B00009D002F58062934205D01A6842F0010219
:1014C0001A60002070479A6802F00702062A07D0C7
:1014D0001A6842F001021A6000207047012070472C
:1014E00000207047002C01407047704770477047DC
:1014F00070B504460368DE681D6915F0020F10D050
:1015000016F0020F0DD06FF002021A61012303776B
:1015100003689B6913F0030F5ED0FFF7E6FF00231B
:10152000237715F0040F12D016F0040F0FD02368A4
:101530006FF004021A610223237723689B6913F476
:10154000407F4FD02046FFF7D0FF0023237715F0D0
:10155000080F12D016F0080F0FD023686FF00802A2
:101560001A61042323772368DB6913F0030F40D04B
:101570002046FFF7BAFF0023237715F0100F12D093
:1015800016F0100F0FD023686FF010021A610823B5
:1015900023772368DB6913F4407F31D02046FFF7BF
:1015A000A4FF0023237715F0010F02D016F0010FDE
:1015B0002DD115F0800F02D016F0800F2FD115F02D
:1015C000400F02D016F0400F31D115F0200F02D09D
:1015D00016F0200F33D170BDFFF786FF2046FFF7CE
:1015E00085FF9CE72046FFF77FFF2046FFF77EFF41
:1015F000ABE72046FFF778FF2046FFF777FFBAE713
:101600002046FFF771FF2046FFF770FFC9E7236808
:101610006FF001021A61204600F0DAF8C9E723688A
:101620006FF080021A61204600F081F8C7E7236856
:101630006FF040021A612046FFF759FFC5E72368A3
:101640006FF020021A61204600F070F8C3E7000036
:1016500003681F4A90420AD0B0F1804F07D0A2F52C
:101660009432904203D002F58062904203D123F07D
:1016700070034A681343164A90420AD0B0F1804F73
:1016800007D0A2F59432904203D002F580629042D6
:1016900003D123F44073CA68134323F080034A69DB
:1016A000134303608B68C3620B688362084B9842E4
:1016B0000AD001234361036913F0010F03D00369CA
:1016C00023F00103036170470B690363F1E700BF77
:1016D000002C014040B310B5044690F83D30F3B102
:1016E000022384F83D30214651F8040BFFF7B0FF88
:1016F000012384F8463084F83E3084F83F3084F883
:10170000403084F8413084F8423084F8433084F823
:10171000443084F8453084F83D30002010BD80F816
:101720003C30FFF7ADFEDBE70120704770477047A4
:1017300030B589B00446224BDA6942F00102DA6121
:10174000DB6903F001030193019B02A903A8FFF7E2
:1017500079FE069BD3B9FFF765FE0346194AA2FB43
:1017600003239B0C013B18484FF08042026040F27B
:10177000E732C26043600023036183608361FFF747
:10178000A9FF054630B1284609B030BDFFF74AFE33
:101790004300E3E70C48FFF775FE05460028F2D149
:1017A0001C20FFF729FA0F2C02D901231D46EAE776
:1017B000002221461C20FFF70FFA044B1C60E2E7D1
:1017C0000010024083DE1B43F401002004000020CF
:1017D00008B5FFF791F908BD08B50248FFF788FE84
:1017E00008BD00BFF401002000F034F90B480C499B
:1017F0000C4A002302E0D458C4500433C4188C426D
:10180000F9D3094A094C002301E013600432A242D3
:10181000FBD300F0E7FE00F07DF8704700000020E9
:10182000D40100208C470008D40100208C03002044
:10183000FEE7000030B589B004AC002204920592A6
:1018400006920792174B996941F0100199619969C5
:1018500001F0100101910199996941F0200199610C
:10186000996901F0200102910299996941F00401FE
:1018700099619B6903F004030393039B0A4D802144
:101880002846FFF7B9FA8023049311230593022316
:1018900006930323079321462846FFF7BBF909B0B7
:1018A00030BD00BF001002400008014072B6FEE7E4
:1018B00010B590B006AC28220021204600F039FE79
:1018C000002301930293039304930593012206924C
:1018D0004FF4803307930A9202220D920E934FF435
:1018E000E0130F932046FFF7ADFA70B90F23019371
:1018F0000221029103904FF480620492059001A8A6
:10190000FFF7D4FC18B910B010BDFFF7CFFFFFF7F9
:10191000CDFF000008B5FFF7DDF8FFF7C9FFFFF7BF
:1019200089FF80210348FFF76DFA4FF4FA70FFF743
:10193000F5F8F6E70008014082B00E4B9A6942F0D4
:1019400001029A619A6902F001020092009ADA6932
:1019500042F08052DA61DB6903F080530193019B0E
:10196000054A536823F0E06343F00073536002B00C
:10197000704700BF0010024000000140FEE7FEE794
:10198000FEE7FEE7FEE770477047704708B5FFF7D0
:10199000B3F808BD0120704708B500F01DFE1623FE
:1019A00003604FF0FF3008BD08B54FF0FF31FFF77F
:1019B000F3FFFEE770B50E461546002406E0AFF3D0
:1019C0000080314601F8010B01340E46AC42F6DBD3
:1019D000284670BD70B50C461646002504E014F884
:1019E000010BAFF300800135B542F8DB304670BD26
:1019F0004FF0FF3070474FF400534B6000207047AA
:101A0000012070470020704708B503460D4A0E4973
:101A10000E48006840B10D4800680344521A9342D2
:101A200008D80A4A136008BD0848DFF824C0C0F887
:101A300000C0F0E700F0D0FD0C2303604FF0FF3052
:101A4000F1E700BF00500020000400003C0200202D
:101A5000900300207047002B2DE9F0471D46BBBFC7
:101A600003F100431D4600232D2388B0149F144624
:101A700027F02007B8BF1446129A462F109EDDF8B3
:101A80004CA0137004D0452F00D10136022300E092
:101A9000032307AA049206AACDE902A2CDE90036E3
:101AA00022462B4600F05CFE472F80461AD1119B40
:101AB000DB070ED500EB060900220023204629464D
:101AC000FEF752FF08B1CDF81C903022079B4B4522
:101AD0001ED34046079B159AA3EB0803136008B07A
:101AE000BDE8F087462F00EB0609E5D10378302BDF
:101AF0000AD10022002320462946FEF735FF18B9F7
:101B0000C6F10106CAF80060DAF800309944D3E75C
:101B1000591C07911A70D9E7F7B50029B6BF2D23D4
:101B20002B2349420929027043702BDD0DF1070474
:101B3000A6460A26871CB1FBF6F5A44606FB15123D
:101B4000632902F13002294604F1FF340CF8012C1C
:101B5000F1DC3031ACF1020204F8011C1446411CE6
:101B600072450AD30DF10903A3EB0C03A64538BF58
:101B700000233B44181A03B0F0BD12F8013B01F8F2
:101B8000013FEDE7302330318370C170031DF1E771
:101B90002DE9F04F93B00C46DDF8708016461F46D5
:101BA000054600F0CFFC036818460B93FEF7B0FA29
:101BB00000231093D8F8003094F818A0073323F0CE
:101BC0000703F3E80212D4F800B0CDE90812C8F810
:101BD000003013460A46C4E91223DDE9088323F0E6
:101BE00000490C904FF0FF32404649469A4BFEF7B1
:101BF000EDFE70BB4FF0FF3240464946964BFEF774
:101C0000C7FE30BBDDE9080100220023FEF7B6FE67
:101C100010B12D2384F84330904A914BBAF1470F0D
:101C20008CBF9046984603234FF0000923612BF0A8
:101C300004032360334621462846009711AA00F08A
:101C4000D1F9013040F08F804FF0FF3013B0BDE884
:101C5000F08FDDE9082310461946FEF7B7FE40B1C4
:101C6000099B804A002BBCBF2D2384F843307E4B58
:101C7000D4E763680AF0DF095A1C3ED1062363608B
:101C800000224BF480632360069210AACDE904A2DF
:101C90000FAA03920DF13B02CDE901326368284699
:101CA0000093DDE90823FFF7D6FEB9F1470F804620
:101CB0000F9929D1C81C02DB63688B4241DAAAF173
:101CC000020A5FFA8AFA5246013904F150000F9174
:101CD000FFF722FF109A81461318012A236102DCC4
:101CE0002268D20701D5013323619DF83B30002BD8
:101CF000A0D02D2384F843309CE7B9F1470FBFD122
:101D0000002BBDD10123BAE7BAF1650FDBD9BAF1D7
:101D1000660F18D1002963680BDD216113B92268B1
:101D2000D00702D501330B4423614FF00009A165B0
:101D3000DBE713B92268D20701D50233F4E70123A8
:101D4000F2E74FF0670A109B8B4205DC23682161A4
:101D5000D807EAD54B1CE7E70029CCBF0122C1F127
:101D600002021344E0E723685A0507D42369424678
:101D700031462846B847013028D165E7BAF1650FEA
:101D800040F2DC80D4E9120100220023FEF7ECFDD2
:101D900090B3012331462846344AB84701303FF416
:101DA00053AFDDE90F38434502DB2368D8070DD573
:101DB000DDE90B2331462846B84701303FF444AFF4
:101DC0004FF0000908F1FF38C84509DC23689B077C
:101DD00000F10581E068119B9842B8BF184635E7CD
:101DE00001233146284604F11A02B84701303FF476
:101DF0002BAF09F10109E7E70F9B834238DC012390
:101E000031462846194AB84701303FF41DAFDDE995
:101E10000F3959EA030302D12368D907D6D5DDE982
:101E20000B2331462846B84701303FF40DAF4FF041
:101E3000000A0F9B5B42534501DC4B4697E70123A9
:101E40003146284604F11A02B84701303FF4FCAE8F
:101E50000AF1010AEDE700BFFFFFEF7F0844000829
:101E600004440008104400080C440008144400080E
:101E7000A36DDDF840B05B45A8BF5B46002B08931F
:101E800037DC4FF0000904F11A02089BD4F858A07F
:101E9000002BB4BF5346AAEB03034B4531DC0F9B29
:101EA0009B453ADC2368DA0737D40F9BABEB030979
:101EB000ABEB0A039945A8BF9946B9F1000F34DC92
:101EC0004FF000080F9BB9F1000FABEB0303A8BF65
:101ED000A3EB090343457FF779AF01233146284639
:101EE00004F11A02B84701303FF4AEAE08F1010820
:101EF000E8E7424631462846089BB8470130C0D142
:101F0000A2E60123314628460D92B84701303FF43E
:101F10009BAE0D9A09F10109B7E73146DDE90B23C4
:101F20002846B8470130C0D18EE64B463146284698
:101F300008EB0A02B8470130C2D185E6DDF840A0BF
:101F4000BAF1010F01DCDB0735D5012342463146EA
:101F50002846B84701303FF477AEDDE90B23314620
:101F60002846B84701303FF46FAED4E91201002291
:101F700000230AF1FF3AFEF7F7FCC8B9534608F10F
:101F8000010231462846B84701300DD15CE60123F5
:101F90003146284604F11A02B84701303FF454AEE6
:101FA00008F10108D045F2DB4B4604F15002DFE6B0
:101FB0004FF00008F6E701234246E2E701233146ED
:101FC000284604F11902B84701303FF43DAE08F14C
:101FD0000108E36811995B1A4345EFDCFAE64FF01C
:101FE0000008F6E72DE9F047914698468A680B69A4
:101FF00007469342B8BF1346C9F8003091F8432012
:102000000C46089E12B10133C9F8003023689906C6
:1020100042BFD9F800300233C9F80030256815F006
:10202000060507D104F1190AE368D9F800209B1AC4
:10203000AB4229DC94F843302268003B18BF0123EF
:1020400092062ED44146384604F14302B04701308F
:1020500021D02368A16803F00603042B12BF0025DA
:10206000E568D9F80030226904BFED1A25EAE57564
:102070008B1A2B449142C8BF1D464FF000091A34F9
:102080004D451AD1002008E001235246414638460A
:10209000B047013003D14FF0FF30BDE8F087013584
:1020A000C2E73020E11881F843005A1C94F845102B
:1020B0002244023382F84310C4E7012322464146FA
:1020C0003846B0470130E6D009F10109D8E70000F1
:1020D0002DE9F04398460B7E85B0782B17460646CF
:1020E0000C460C9A09D8622B01F1430108D8002B49
:1020F00000F0DC80582B00F0BD8004F1420539E08F
:10210000A3F163001528F8D801A555F820F000BF09
:10211000692100087D210008FB200008FB20000841
:10212000FB200008FB2000087D210008FB200008A0
:10213000FB200008FB200008FB2000088D2200087F
:10214000A92100083B220008FB200008FB20000812
:10215000B5220008FB200008A9210008FB20000888
:10216000FB20000843220008136804F14205191DF2
:102170001B68116084F842300123A8E013682568C9
:10218000181D1060280601D51B6803E06A06FBD500
:10219000B3F90030002B03DA2D225B4284F8432090
:1021A0000A22DFF878C113E02568106815F0800F67
:1021B00050F8043B02D16D0648BF9BB21060227EEE
:1021C000DFF858C16F2A5DD10822002084F843004F
:1021D0006568002DA56005DB20681D4320F0040024
:1021E000206051D00D46B3FBF2F002FB103E1CF80C
:1021F0000EE09A4205F801ED0346F4D9082A0BD106
:102200002368DA0708D5236962689A42DEBF302363
:1022100005F8013C05F1FF35491B21613B4621468C
:102220003046CDF8008003AAFFF7DCFE013053D121
:102230004FF0FF3005B0BDE8F083236843F0200382
:1022400023607823DFF8D8C084F84530206815680B
:1022500010F0800F55F8043B03D110F0400F18BF69
:102260009BB21560C50744BF40F02000206023B139
:102270001022AAE7DFF8A4C0E6E7226822F02002D5
:102280002260F5E70A22A0E70D46B7E71368D4F805
:1022900000C01D1D60691CF0800F15601B6801D017
:1022A000186003E01CF0400FFAD0188000230D46A0
:1022B0002361B3E71368191D11601D6800212846CA
:1022C000626800F0B6F908B1401B60606368236182
:1022D000002384F84330A1E72A4639463046236973
:1022E000C0470130A4D023689B0714D4E068039B47
:1022F0009842B8BF18469DE701233946304604F19D
:102300001902C047013093D00135E36803995B1A85
:10231000AB42F1DCEAE70025F7E700BF164400080E
:1023200027440008002310B50446C0E90033C0E983
:102330000433836081814366C28183611946082228
:102340005C3000F0F6F80D4B246263620C4BA36224
:102350000C4BE3620C4B23630C4B9C4206D003F105
:102360006802944202D0D0339C4205D104F1580057
:10237000BDE8104000F05AB910BD00BFAB24000802
:10238000CD240008052500082B2500084002002068
:10239000024A0349034800F06BB800BF0C0000205C
:1023A0003D3D00081C00002041680C4B10B59942CF
:1023B000044601D001F0C2FCA168094B994202D049
:1023C000204601F0BBFCE168064B994204D0204650
:1023D000BDE8104001F0B2BC10BD00BF40020020BB
:1023E000A80200201003002010B50A4B0A4A04215D
:1023F0001A600A480022FFF795FF012209210848C8
:10240000FFF790FFBDE81040022212210548FFF7B8
:1024100089BF00BF780300209123000840020020FC
:10242000A802002010030020014800F000B900BFFE
:1024300081030020014800F0FBB800BF81030020A9
:1024400010B50446FFF7F0FF236A1BB1BDE810404A
:10245000FFF7F0BF044B2362044B1B68002BF5D140
:10246000FFF7C2FFF2E700BFA923000878030020AE
:102470002DE9F8438046894614460026D4E90175C3
:10248000013F05D52468002CF8D13046BDE8F8831B
:10249000AB89012B07D9B5F90E30013303D029469A
:1024A0004046C84706436835EAE710B50C46B1F91F
:1024B0000E1000F06DF80028ABBF636DA3891B18E8
:1024C00023F48053ACBF6365A38110BD2DE9F041B7
:1024D0001F468B890546DB050C46164605D50223AB
:1024E0000022B1F90E1000F041F8A389324623F41E
:1024F0008053A38128463B46B4F90E10BDE8F04155
:1025000000F058B810B50C46B1F90E1000F02EF8D6
:10251000B4F90C30421C0BBF23F4805343F48053B6
:10252000A381A38118BF606510BDB1F90E1000F042
:102530000DB803460244934200D1704703F8011BD3
:10254000F9E70000004870475801002038B5002323
:10255000054C054608462360FFF74AFA431C02D1A2
:10256000236803B12B6038BD7C03002038B50546D5
:10257000084611460022054C22601A46FFF742FA2F
:10258000431C02D1236803B12B6038BD7C030020BB
:1025900038B50546084611460022054C22601A4609
:1025A000FFF708FA431C02D1236803B12B6038BD42
:1025B0007C03002038B50546084611460022054C2C
:1025C00022601A46FFF706FA431C02D1236803B1C2
:1025D0002B6038BD7C030020014B1868704700BF9A
:1025E0001800002070B500260C4C0D4B1D1BB6EBDF
:1025F000A50F09D1002601F0E3FE0A4C0A4B1D1B72
:10260000B6EBA50F05D170BD54F8043B98470136D1
:10261000EDE754F8043B98470136F1E7844700089A
:1026200084470008844700088847000870477047BF
:102630007047034610B5C9B20244934201D100204D
:1026400004E01846047801338C42F6D110BD2DE920
:10265000F74F03690C698046A3427EDB013CA3006F
:1026600000F1140501F11407009305EB84030193B5
:1026700057F8243055F8242001339A42B2FBF3F680
:1026800007EB84092ED34FF0000ABC46AE46D34672
:102690005CF8043B98B206FB00A01B0C020C06FB86
:1026A0000323DEF8002080B292B2121A5A44DEF8F8
:1026B00000004FEA134A9BB2C3EB224303EB1043E3
:1026C00092B242EA0342E1454FEA234B4EF8042B13
:1026D000DED2009BEB582BB9019B1A1F954230D3D9
:1026E000C8F81040404601F0A1F9002825DB294632
:1026F0000020013657F8042BD1F800C01FFA82FEE3
:102700001FFA8CF3A3EB0E030344120CC2EB23421B
:1027100002EB1C429BB243EA0243B9454FEA224016
:1027200041F8043BE6D255F8242005EB840322B996
:10273000043B9D420BD3C8F81040304603B0BDE8BF
:10274000F08F1368002BCBD1043A013CC6E71A681E
:10275000002AF0D1043B013CEBE70020EEE700004B
:102760002DE9F04F16461F46C26999B08146CDE962
:102770000E67259C82B9102000F01AFE0246C9F8A7
:102780001C0020B9EF21A24BA24801F01DFB002341
:10279000C0E901330360C360116859B10123526875
:1027A000484693404A608B6000F0F2FE0022D9F860
:1027B0001C301A60B7F10008B5BF01230023236065
:1027C0002360954BBCBF28F00048CDF83C8033EA2D
:1027D00008031AD142F20F73249AC8F3130858EA77
:1027E0000608136000F06D85269B53B98B4B21E0E2
:1027F0008B4B03930833269A1360039819B0BDE8F6
:10280000F08F864B03930333F5E7DDE90E34CDE912
:102810000A34DDE90A0100220023FEF7A5F882460A
:1028200050B10123249A1360269B13B17D4B269A45
:1028300013607D4B0393E0E716AB019317AB009356
:102840004846DDE90A2301F0A5F95FEA1854169D10
:1028500004907CD0DDE90A010B9BA4F2FF34C3F3A2
:10286000130343F07F5343F44013CDF850A01946AF
:1028700000226E4BFDF758FC5FA3D3E90023FDF760
:102880000BFE5FA3D3E90023FDF750FC064620466C
:102890000F46FDF797FD5CA3D3E90023FDF7FCFD90
:1028A00002460B4630463946FDF740FC06460F46C9
:1028B000FEF7A2F800228046002330463946FEF794
:1028C0005DF848B14046FDF77DFD32463B46FEF7D8
:1028D0004BF808B908F1FF38B8F1160F54D8DDE904
:1028E0000A01534B03EBC803D3E90023FEF746F874
:1028F00000284BD0002308F1FF3811932D1B6B1ECD
:10290000099349BF00230027C5F101070993B8F1D6
:10291000000F3DDB099BCDF8408043440993002321
:102920000C93229B092B00F28780052BC4BF043B2C
:102930002293229BC8BF0024A3F10203D8BF012425
:10294000032B00F28580DFE803F05153362B179CF0
:102950002C4404F23243202BC1BFC3F1400308FAD8
:1029600003F804F2124326FA03F3D6BFC3F120039F
:1029700048EA030006FA03F0FDF714FD0122A1F175
:10298000F873013C149272E70123B6E71190B5E7A2
:10299000C8F100030C930023A7EB08071093C0E7CE
:1029A00001230D93239B434408930133012B05938B
:1029B000B8BF012306E001230D93239B002B4ADDC2
:1029C0000893059300210422D9F81C0002F1140594
:1029D0009D4245D94160484600F09CFD0390002887
:1029E00041D1024640F2AF11124BCDE60023E3E79E
:1029F0000023D6E7AFF3008061436F63A787D23F20
:102A0000B3C8608B288AC63FFB799F501344D33FDD
:102A1000454400085C4400080000F07F4144000881
:102A20003844000815440008144400080000F83F2A
:102A3000B0450008B7440008012400230D942293F8
:102A40004FF0FF3300220893059323921223B9E736
:102A500001230D93F4E70123089305932393B1E732
:102A600001315200B2E7D9F81C30039A1A60059B75
:102A70000E2B75D8002C73D0B8F1000F40F3C48032
:102A80009F4B08F00F0203EBC20318F4807F4FEA5C
:102A90002815D3E900AB00F0A380DDE90A01994BCA
:102AA0000324D3E90823FDF721FECDE9060105F053
:102AB0000F05944E002D40F09980DDE90601524645
:102AC0005B46FDF713FE82468B46119B002B00F000
:102AD000C3800022504659468B4BFDF74FFF00281C
:102AE00000F0BA80059B002B00F0B680089B002BFD
:102AF00036DD08F1FF335046594606930022834BDA
:102B0000FDF7CAFC82468B46089E01342046FDF73D
:102B100059FC52465B46FDF7BFFC00227C4BFDF79B
:102B200005FB0446A1F15075CDE91245002E40F099
:102B30009780002250465946764BFDF7F5FA22461B
:102B40002B4682468B46FDF737FF002840F0C182B6
:102B500022465046594605F10043FDF70FFF20BBC2
:102B6000179B002BC0F29181B8F10E0F00F38D81FD
:102B7000634B03EBC803D3E900AB239B002B80F22C
:102B80001B81059B002B00F317810ED10022614BA6
:102B900050465946FDF780FC02460B46DDE90A0126
:102BA000FDF7F6FE002800F0978200252C46239BB7
:102BB000039EDB430693274600242946484600F03F
:102BC000E7FC002F00F0EE802CB1BC4203D0214680
:102BD000484600F0DDFC3946484600F0D9FCE1E00B
:102BE000DDE90A34CDE90634022462E7E90708D5B5
:102BF000D6E9002350465946FDF74EFC82468B46E7
:102C000001346D10083655E722D0DDE90A01C8F11C
:102C100000053B4B05F00F0203EBC203D3E9002391
:102C2000FDF73AFC022482468B46364E2D11002DCC
:102C30003FF44BAFEA0708D5D6E900235046594682
:102C4000FDF72AFC82468B4601346D100836EEE70C
:102C50000224DDE90AAB38E7059ECDF8188055E778
:102C6000274B03EBC60353E902010D9B002B55D004
:102C700002460B4600202849FDF738FDDDE9122306
:102C8000FDF752FA039BCDE912019D191E465946E4
:102C90005046FDF7B1FE00F13004FDF793FB02460C
:102CA0000B4650465946FDF73FFADDE9122306F878
:102CB000014B82468B46FDF761FE002872D15246D9
:102CC0005B4600201049FDF72FFADDE91223FDF7DE
:102CD00055FE002840F0BA80AE423FF441AFDDE936
:102CE00012010022094BFDF7D7FB0022CDE91201AA
:102CF000064B50465946FDF7CFFB82468B46C6E74A
:102D0000B0450008884500080000F03F000024405E
:102D100000001C40000014400000E03FDDE91223E9
:102D2000FDF7BAFB039BCDE912013344039C1593D5
:102D300059465046FDF760FE00F13005FDF742FBB5
:102D40000B46024659465046FDF7EEF9159B04F82E
:102D5000015B9C4282468B4627D1DDE91201039B31
:102D600000221E44AC4BFDF7E1F902460B465046EB
:102D70005946FDF721FE002868D1DDE91223002025
:102D8000A549FDF7D1F902460B4650465946FDF7D5
:102D9000F5FD00283FF4E4AE334616F8012D302A45
:102DA000FAD01E46DDF818803EE000229B4BFDF76E
:102DB00073FB82468B46BBE70024039E974D524629
:102DC000DDE90A015B46FDF791FCFDF715FE0746BC
:102DD000FDF7F8FA52465B46FDF75EFB02460B46EE
:102DE000DDE90A01FDF7A0F907F1300C06F801CB87
:102DF000DDF80CC0DDF814E0A6EB0C0CE64502464D
:102E00000B4633D1FDF792F952465B4604460D4618
:102E1000FDF7D2FDC0B952465B4620462946FDF774
:102E2000A3FD08B1FB070FD44846049900F0B0FB9E
:102E30000023249A337008F101031360269B002BB2
:102E40003FF4DBAC1E60D8E4CDF8188033461E4654
:102E500013F8012D392A06D1039A9A42F7D1069A1E
:102E600001320692302201321A709BE722462B462D
:102E7000FDF712FB02460B46CDE90A230022002390
:102E8000FDF772FD00289AD0CEE70D9A002A00F0D7
:102E9000DF80229A012A00F3C380149A002A00F0EE
:102EA000B78003F233430C9D3E46099A01211A4430
:102EB00048461F44099200F01FFC044656B1099B86
:102EC000002B07DDB342A8BF3346099AFF1AF61A52
:102ED000D31A09930C9B0BB30D9B002B00F0BF8002
:102EE000002D00F0B98021462A46484600F0D0FC6B
:102EF000049A01460446484600F014FC04998246B0
:102F0000484600F045FB0C9B5B1B0C9300F0AA802D
:102F100051460C9A484600F0BBFC049001214846FB
:102F200000F0EAFB109B0546002B00F0D1811A4609
:102F30000146484600F0ACFC229B0546012B00F3FD
:102F400099800E9B002B40F090800F9BC3F31303DE
:102F5000002B40F08A800F9B23F000431B0D1B05C4
:102F6000002B00F085804FF0010A099B01370133E7
:102F70000993109B002B00F0B1812B6905EB8303B3
:102F8000186900F06DFBC0F12000099B184410F097
:102F90001F0076D01B2870DCC0F11C0007440644DB
:102FA00003440993002F05DD3A464846049900F092
:102FB000CBFC0490099B002B05DD29461A464846A8
:102FC00000F0C2FC0546119B002B5FD029460498F7
:102FD00000F02CFD002859DA08F1FF3306930A228D
:102FE00000234846049900F0F5FA0D9B0490002B4D
:102FF00000F07681002321460A22484600F0EAFAD2
:10300000089B0446002B71DC229B022B47DC6DE001
:10301000169BC3F1360346E70000E03F0000244062
:10302000059B5D1E0C9BAB4208DB5D1B059B002BCB
:10303000BFF63AAF059BFE1A002336E70C9B109AA9
:10304000EB1A1A440C953E460025059B10922CE77E
:103050003E460C9D0D9C31E7DDF810A058E70C9A18
:10306000049957E7CDF810A058E74FF0000A80E721
:103070009A467EE74FF0000A7FE71C2892D0C0F105
:1030800020001C30099B0744064489E7059BCDF8C6
:103090001880002B24DC0893229B022B22DD089B46
:1030A000002B7FF484AD29460522089B484600F09A
:1030B00091FA01460546049800F0B8FC00287FF715
:1030C00076AD3123039E06F8013B069B0133069340
:1030D00071E535462C46F4E7059DCDF81880F9E7F3
:1030E000059B08930D9B002B00F0FE80002E05DD54
:1030F00021463246484600F027FC0446BAF1000F4C
:1031000058D04846616800F005FA064628B90246DC
:1031100040F2EF217F4BFFF737BB226904F10C012E
:10312000023292000C3000F041FE01223146484646
:1031300000F00AFC0746039B039A03F10108089B71
:1031400013440A930E9B03F0010309932946049844
:10315000FFF77DFA2146059000F1300B049800F04E
:1031600065FC3A4608902946484600F07BFCC26858
:10317000064608F1FF3AFAB90146049800F056FCF9
:103180000246314648460C9200F002FA229B0C9A05
:10319000464642EA0301099B19430FD1BBF1390F9F
:1031A00028D0089B002B02DD059B03F1310B8AF828
:1031B00000B002E52746BEE70122E2E7089B002BAC
:1031C00004DB22990B4309990B4320D1002AEEDD41
:1031D00001220499484600F0B7FB2946049000F00C
:1031E00025FC002803DCE2D11BF0010FDFD0BBF18E
:1031F000390FD9D139238AF8003033461E4616F8E4
:10320000012C013B392A53D001321A70D5E4002A2F
:1032100007DDBBF1390FEDD00BF101038AF8003067
:10322000CBE40A9B08F801BC43452BD000230A22BB
:103230000499484600F0CEF9BC4204904FF00003D8
:103240004FF00A022146484606D100F0C3F9044671
:10325000074608F1010879E700F0BCF93946044651
:1032600000230A22484600F0B5F90746F1E7089B1B
:103270002746002B03F1FF36D8BF00260024039B0E
:103280005A1C164401220499484600F05DFB294669
:10329000049000F0CBFB0028AFDC02D11BF0010F43
:1032A000ABD133461E4613F8012D302AFAD084E400
:1032B000039A9A42A2D1069B0133069331231370DD
:1032C0007BE4269B002B7FF493AA134BFFF7B2BA43
:1032D000229B012B7FF735AEDDF840A0012054E69C
:1032E000089B002B7FF7D8AE039E29460498FFF772
:1032F000AEF9039B00F1300B06F801BBF21A089BF4
:103300009342B4DD00230A224846049900F062F992
:103310000490EAE7B74400083844000837B50029AC
:1033200042D051F8043C0C1F002BB8BFE4180190A8
:1033300000F0E4F81D4A0198136833B96360146023
:1033400003B0BDE8304000F0DFB8A34208D92568DB
:1033500061198B4201BF19685B6849192160EDE76B
:103360001A465B680BB1A342FAD911685518A542F9
:103370000BD1246821445418A3421160E0D11C6889
:103380005B680C4414605360DAE702D90C230360D5
:10339000D6E7256861198B4201BF19685B68491936
:1033A000216063605460CBE703B030BD8803002028
:1033B000024B0146186800F025B800BF1800002035
:1033C00070B50F4C0E462168054611B900F0DEFCC1
:1033D00020603146284600F0D9FC431C03D14FF051
:1033E000FF34204670BDC41C24F00304A042F8D072
:1033F000211A284600F0CAFC0130F2D1EFE700BFE5
:10340000840300202DE9F843CD1C25F00305083581
:103410000C2D38BF0C25002D064601DBA94204D92E
:103420000C2333600020BDE8F883334F00F066F8CA
:103430003B681C463CBB29463046FFF7C1FF431C96
:10344000044656D13C68A046B8F1000F40D1002C8C
:1034500049D023684146304604EB030900F096FC4E
:10346000814540D1216830466D1A2946FFF7A8FFF3
:10347000013038D023682B4423603B685A685ABB1C
:10348000C7F800800EE02268521B1ED40B2A16D902
:103490006119A342256018BF5960636808BF39608D
:1034A00062514B60304600F02FF804F10B00231DF1
:1034B00020F00700C21A1CBF1B1AA350B3E76268B2
:1034C000A3420CBF3A605A60ECE723466468B1E758
:1034D0004446D8F80480B7E71A465B68A342FBD19C
:1034E00000235360DEE70C233046336000F00CF815
:1034F00098E70560D6E700BF880300200148FFF782
:1035000096B800BF800300200148FFF791B800BFC4
:103510008003002070B5C46905460E4684B91020AA
:10352000FFF746FF0446E86128B902466B21164BB7
:10353000164800F049FC0023C0E901330360C36072
:10354000E36853B921220421284600F05BFCEB69B3
:10355000E060DB680BB9002070BD53F8260030B185
:10356000026843F826200023C0E90333F4E7012171
:1035700001FA06F4621D2846920000F043FC002880
:10358000E9D0C0E90164EEE745440008C8440008FA
:1035900070B5C46906460D4674B91020FFF708FFE0
:1035A0000246F06120B98F21084B094800F00CFC5D
:1035B000C0E901440460C4603DB1F3696A68DB6836
:1035C00053F82210296043F8225070BD454400088A
:1035D000C84400082DE9F04107460C461E4600206D
:1035E0000D6901F1140CDCF80030013099B202FBD6
:1035F00001611E0C0B0C02FB063389B201EB034187
:1036000085424FEA13464CF8041BECDC0EB3A3686A
:10361000AB4219DC616838460131FFF77BFF804619
:1036200028B90246BA210C4B0C4800F0CDFB2269A8
:1036300004F10C01023292000C3000F0B7FB21467D
:103640003846FFF7A5FF444604EB850301355E616C
:1036500025612046BDE8F081B7440008C844000851
:103660000346B0F5803F3ABF030410200020B3F1B9
:10367000807F3CBF1B020830B3F1805F3CBF1B0161
:103680000430B3F1804F3CBF9B000230002B04DBC1
:103690005B0001D501307047202070470368014668
:1036A00013F007020BD0DA0722D4980749BF5B0852
:1036B0009B0801200B605CBF02200B60704798B232
:1036C000A0B910201B0CDAB20AB908301B0A1A077D
:1036D00004BF1B0904309A0704BF9B080230DA07B5
:1036E00002D45B0806D001300B6070471046EAE751
:1036F000002070472020704710B50C460121FFF7CD
:1037000009FF024628B940F24511044B044800F075
:103710005BFB01234461036110BD00BFB744000897
:10372000C84400082DE9F04FD1F81080D2F810906D
:103730000E46C845144685B004DB4B460C46C146D0
:1037400016469846A368616809EB0807BB42B8BFF4
:103750000131FFF7DFFE30B902464FF4B1714A4B39
:103760004A4800F031FB00F114052B46002205EB1E
:10377000870B5B4522D306F1140101EB880304F1AA
:10378000140C0CEB890C029304F1150363458CBFF8
:10379000002301230093ACEB0403153B9B0801932A
:1037A000029B03918B420CD8002F03DD5BF8043D94
:1037B000002B67D0076105B0BDE8F08F43F8042BFC
:1037C000D7E7B1F800A0BAF1000F28D0A9464FF012
:1037D000000E04F1140858F8042BD9F8003096B202
:1037E0009BB20AFB0633D9F80060120C360C0AFBB8
:1037F0000266734406EB13469BB243EA0643C44594
:103800004FEA164E49F8043BE5D8009A019B002A7E
:103810004FEA830308BF00232B44C3F804E0039B53
:103820000431B3F802E0BEF1000F29D02B68A9469D
:1038300098464FF0000A04F1140632889BB20EFB42
:1038400002A202EB184243EA024349F8043B56F84D
:10385000043BD9F800804FEA134A1FFA88F30EFBA5
:103860000A33B44503EB12434FEA134AE5D8009EEE
:10387000019A002E4FEA820208BF00222A445360B8
:1038800004358DE7013F8FE7B7440008C8440008BE
:103890002DE9F843174612F0030280460D4607D083
:1038A000264C013A002354F82220FFF793FE0546E8
:1038B000BF103FD0D8F81C4094B91020FFF778FD16
:1038C0000446C8F81C0030B9024640F2B3111C4B44
:1038D0001C4800F079FA0023C0E901330360C3609B
:1038E000A66846B940F271214046FFF705FF002364
:1038F0000646A06003602C464FF0000907F0010364
:103900007F1053B1294632464046FFF70BFF214650
:1039100005464046FFF73CFE67B1306838B932468D
:1039200031464046FFF7FEFE3060C0F80090064684
:103930002C46E3E72846BDE8F88300BF7C45000835
:1039400045440008C84400082DE9F84F0C460746D6
:1039500091462669496806EB6216A3684FEA621A27
:1039600006F1010843450BDB3846FFF7D3FD05465A
:1039700048B902464FF4EF712A4B2B4800F024FA65
:1039800001315B00EEE7002300F114010A461846FE
:10399000534539DB20692AEAEA7A01EB8A0104F10E
:1039A000140319F01F098C4603EB800030D04FF050
:1039B000000EC9F1200AE3461A680CF1040C02FA61
:1039C00009F242EA0E02CBF8002053F8042B984289
:1039D00022FA0AFEEFD8031B153B23F0030304F180
:1039E0001502904238BF00231944C1F804E0BEF12B
:1039F000000F00D1B04638462146C5F81080FFF7C9
:103A0000C7FD2846BDE8F88F42F8040B0133BFE735
:103A100053F8041B0CF1040C98424CF8041CF7D822
:103A2000E8E700BFB7440008C844000803690A6912
:103A300030B59B1A0ED11430143100EB820401EB27
:103A4000820154F8045D51F8042D954204D006D249
:103A50004FF0FF33184630BDA042F2D3FAE70123FE
:103A6000F8E700002DE9F74F8A4606461146504612
:103A70001446FFF7DBFF051E12D129463046FFF73B
:103A800049FD024628B940F23721404B404800F03A
:103A90009BF90123C0E90435104603B0BDE8F08F5F
:103AA000BCBF5346A2463046DAF80410BABF1C46E3
:103AB00001250025FFF72EFD024618B940F24521E9
:103AC000324BE3E7C56000F11405AB464FF0000C44
:103AD000DAF8107026690AF1140904F1140E0AF1DB
:103AE000100309EB87080EEB86060193019B5EF835
:103AF000040B53F804AF81B201931FFA8AF35B1AE7
:103B0000000C6344C0EB1A4000EB23409BB243EA35
:103B1000004376454FEA204C4BF8043BE6D8331B74
:103B2000153B153423F00303A64238BF0023E818E1
:103B30004B441C1D26460430A5EB090546450ED313
:103B400008F10301091B21F003010133984538BF37
:103B50000021014451F8043DB3B117619CE7E246EE
:103B600006EB050E56F8041B1FFA81FCD4444FEAFD
:103B70001149514409EB2C4989B241EA09414FEA04
:103B8000294CCEF80010D9E7013FE3E7B74400081D
:103B9000C84400082DE97343012190469946089EC8
:103BA000FFF7B8FC054630B9024640F20F31234B0F
:103BB000234800F009F9C9F30A54C9F313030CB1FF
:103BC00043F480130193B8F1000324D068460093B6
:103BD000FFF764FD0099E0B1019AC0F1200302FAF9
:103BE00003F30B43C2406B610192019B002B0CBF9E
:103BF00001220222AB612A61ACB1A4F23344044435
:103C00003460C0F13500099B1860284602B0BDE859
:103C100070836961E9E701A8FFF740FD019B01227C
:103C20006B612030E7E7A0F2324005EB82033060A1
:103C30001869FFF715FDC0EB4210E4E7B744000830
:103C4000C8440008B1F90C20F8B5160705460C4623
:103C500051D44B68002B02DC0B6C002B49DDE66A6B
:103C6000002E46D0002312F480522F682B6031D0F2
:103C7000626DA389590705D56368D21A636B0BB1CE
:103C8000236CD21A00232846E66A216AB047421CF8
:103C9000B4F90C3006D129681D2944D8264ACA40F7
:103CA000D60740D5002262602269D904226004D57B
:103CB000421C01D12B6803B96065616B2F60C1B1F3
:103CC00004F14403994202D02846FFF727FB002362
:103CD00063630EE001232846216AB0470246501C68
:103CE000C7D12B68002BC4D01D2B01D0162B19D1A6
:103CF0002F6000201CE00F69002FFAD0930718BF37
:103D000000230E6808BF4B69F61B0F608B60002E06
:103D1000EFDD33463A462846216AD4F828C0E0470A
:103D2000002806DCA3894FF0FF3043F04003A38155
:103D3000F8BD0744361AEAE70100402038B50B69A0
:103D400005460C4613B91D46284638BD18B1036A0E
:103D50000BB9FEF775FBB4F90C30002BF3D0626E93
:103D6000D00704D4990502D4A06DFEF760FC284664
:103D70002146FFF767FF636E0546DA07E4D4A3899F
:103D80009B05E1D4A06DFEF753FCDDE738B50023B9
:103D9000054C054608462360FDF736FE431C02D15C
:103DA000236803B12B6038BD7C0300200A44914294
:103DB00000F1FF3300D1704710B511F8014B91426B
:103DC00003F8014FF9D110BD1FB51D46094B06463A
:103DD0001B68D86852B1084C3346CDE901420091C6
:103DE0002A46064900F042F800F052F8044C2246F8
:103DF000F2E700BF180000202E4500083B450008F0
:103E00006945000870B5A1FB026535B93146FFF779
:103E1000F9FA044628B9204670BD0C23002403603B
:103E2000F9E732462946FEF784FBF4E782B001B990
:103E300001A942B14BB113780B601278101E18BF64
:103E4000012002B070471046FBE76FF00100F8E771
:103E500049B1FF2A8BBF8A23012003600A7088BF03
:103E60004FF0FF3070470846704700000EB403B5AE
:103E7000014603AB054853F8042B0068019300F09A
:103E800035F802B05DF804EB03B07047180000206D
:103E9000062008B500F0F8F90120FDF785FD9368CC
:103EA00010B4013B002B936007DA9469A34201DB55
:103EB0000A2902D110BC00F02DB91368581C1060FB
:103EC0001970084610BC7047F8B506460F461446F0
:103ED000D518AC4201D1002007E03A46304614F82C
:103EE000011BFFF7DCFF431CF3D1F8BD2DE9F047C0
:103EF00006460D4614461F469CB018B1036A0BB91E
:103F0000FEF79EFA6B6ED90705D4AB899A0502D4E9
:103F1000A86DFEF78CFBAB891B0701D52B699BB9FC
:103F20002946304600F034F970B16B6EDE0704D5D7
:103F30004FF0FF301CB0BDE8F087AB899C05F7D48B
:103F4000A86DFEF775FBF3E70023099320238DF896
:103F5000293030234FF001080397694F8DF82A303C
:103F600023461A7899461AB1252A03F10103F8D19C
:103F7000B9EB040A0BD05346224629463046FFF7D8
:103F8000A3FF013000F0A380099A5244099299F8E6
:103F90000030002B00F09B8000224FF0FF33CDE972
:103FA000053209F10109049207928DF853201A9203
:103FB0004C46052214F8011B5148FEF73AFB049ABF
:103FC000D0B9D00644BF20238DF85330110744BF29
:103FD0002B238DF8533099F800302A2B13D04B4601
:103FE00000204FF00A0C07991A781C46303A092A2B
:103FF0004AD9A8B1079113E0C01B08FA00F010439A
:10400000A1460490D4E7039B191D1B680391002B64
:10401000BBBF5B4242F0020207930793B8BF049212
:1040200023782E2B0AD163782A2B32D1039B0234BA
:104030001A1D1B68039243EAE3730593DFF8C490EB
:10404000032248462178FEF7F4FA38B14022049B57
:10405000A0EB090082401343013404932178062227
:1040600029488DF82810FEF7E4FA00283ED02748AA
:1040700018BB039B073323F0070308330393099B03
:104080000134034409936BE701200CFB0121013348
:10409000AAE700234FF00A0C18460593611C0A7822
:1040A0000C46303A092A03D9002BC7D00590C5E742
:1040B00001230CFB00200131F1E703AB00932A46FA
:1040C0003046134B04A9FDF763FD431CD7D16B6E3B
:1040D000D90705D4AB899A0502D4A86DFEF7A8FAD2
:1040E000AB895B063FF524AF099823E703AB009348
:1040F0002A463046064B04A9FDF7EAFFE5E700BF74
:104100006A4500087045000874450008911B0008C6
:10411000C93E0008F8B505460F46144618B1036AB3
:104120000BB9FEF78DF9A369A360A3891A0701D51E
:10413000236943B92146284600F02AF818B14FF008
:10414000FF363046F8BD23692068C01A6369834290
:1041500005DC21462846FFF7F1FD0028EFD1A368D2
:104160000130013BA3602368FEB25A1C22601F701D
:104170006369834204D0A389DB07E2D50A2EE0D12C
:1041800021462846FFF7DAFD0028DAD0D7E70000FD
:1041900038B5284B054618680C4618B1036A0BB9A8
:1041A000FEF74EF9B4F90C30190720D4DA0607D41B
:1041B00009222A6043F040034FF0FF30A38131E031
:1041C000580711D5616B41B104F14403994202D003
:1041D0002846FFF7A3F8002363630022A3896260E7
:1041E000226923F02403226043F00803A38123699A
:1041F0004BB9A38903F42073B3F5007F03D02146A4
:10420000284600F081F8B4F90C3013F001020AD00E
:104210000022A26062695242A261226942B913F08F
:104220008000C7D138BD990758BF6269A260F4E722
:104230000020F7E7180000201F2938B505460C4676
:1042400004D9162303604FF0FF3038BDC26B12B1A2
:1042500052F821304BB9284600F030F8224601468A
:104260002846BDE8384000F017B8012B0AD0591C89
:1042700003D1162303600120E7E70021204642F81E
:10428000241098470020E0E7024B01461868FFF72A
:10429000D3BF00BF1800002038B50023064C0546E8
:1042A000084611462360FDF777FB431C02D12368C3
:1042B00003B12B6038BD00BF7C030020FDF76ABB53
:1042C00070B50E46B1F90E10144600291D4696B081
:1042D0000ADAB28912F0800213D14FF48061002013
:1042E0002A60216016B070BD6A4600F047F80028C9
:1042F000EFDB019A02F47042A2F500535A425A4190
:10430000EBE700224021EAE78B8973B59E0705465B
:104310000C4607D504F14703236023610123636141
:1043200002B070BD01AB6A46FFF7CAFF009E284687
:104330003146FFF767F8B4F90C3038B99A05EFD475
:1043400023F0030343F00203A381E3E743F0800378
:10435000A381019BC4E904062060002BE0D028461D
:10436000B4F90E1000F01CF80028D9D0A38923F06E
:10437000030343F00103A381D2E7000038B5002313
:10438000064C0546084611462360FDF734FB431CE6
:1043900002D1236803B12B6038BD00BF7C0300202D
:1043A00038B50023054C054608462360FDF728FB79
:1043B000431C02D1236803B12B6038BD7C0300206D
:1043C000F8B500BFF8BC08BC9E467047F8B500BF02
:0843D000F8BC08BC9E467047D2
:1043D8000102000002030405060708090A0B0C0D78
:1043E8000E0F10100000000001020304000000007E
:1043F800000000000102030406070809494E4600B0
:10440800696E66004E414E006E616E0030003031BC
:104418003233343536373839414243444546003023
:104428003132333435363738396162636465660052
:10443800496E66696E697479004E614E0052454551
:104448004E54206D616C6C6F632073756363656592
:10445800646564002F646174612F6A656E6B696EB0
:10446800732F776F726B73706163652F474E552D8D
:10447800746F6F6C636861696E2F61726D2D313571
:104488002D352F7372632F6E65776C69622D637992
:104498006777696E2F6E65776C69622F6C696263E6
:1044A8002F7374646C69622F64746F612E630042A9
:1044B800616C6C6F63207375636365656465640024
:1044C8002F646174612F6A656E6B696E732F776FE5
:1044D800726B73706163652F474E552D746F6F6CE7
:1044E800636861696E2F61726D2D31352D352F73BB
:1044F80072632F6E65776C69622D63796777696E71
:104508002F6E65776C69622F6C6962632F737464B0
:104518006C69622F6D707265632E63004300504FA3
:10452800534958002E002C2066756E6374696F6EAF
:104538003A2000617373657274696F6E2022257367
:1045480022206661696C65643A2066696C65202280
:104558002573222C206C696E6520256425732573CC
:104568000A00232D302B2000686C4C0065666745D7
:104578004647000005000000190000007D0000000B
:104588000080E03779C34143176E05B5B5B8934647
:10459800F5F93FE9034F384D321D30F94877825A13
:1045A8003CBF737FDD4F1575000000000000F03F31
:1045B80000000000000024400000000000005940F6
:1045C8000000000000408F40000000000088C34049
:1045D80000000000006AF8400000000080842E41BE
:1045E80000000000D01263410000000084D797410A
:1045F8000000000065CDCD41000000205FA0024210
:10460800000000E876483742000000A2941A6D4284
:10461800000040E59C30A2420000901EC4BCD64277
:1046280000003426F56B0C430080E03779C3414322
:1046380000A0D8855734764300C84E676DC1AB4398
:10464800003D9160E458E143408CB5781DAF1544B6
:1046580050EFE2D6E41A4B4492D54D06CFF0804491
:10466800F64AE1C7022DB544B49DD9794378EA44A6
:10467800002020202020202020202828282828202A
:104688002020202020202020202020202020202022
:10469800208810101010101010101010101010108A
:1046A800100404040404040404040410101010107A
:1046B8001010414141414141010101010101010144
:1046C8000101010101010101010101011010101096
:1046D8001010424242424242020202020202020216
:1046E800020202020202020202020202101010106A
:1046F8002000000000000000000000000000000092
:1047080000000000000000000000000000000000A1
:104718000000000000000000000000000000000091
:104728000000000000000000000000000000000081
:104738000000000000000000000000000000000071
:104748000000000000000000000000000000000061
:104758000000000000000000000000000000000051
:104768000000000000000000000000000000000041
:04477800000000003D
:08477C0094B9FF7F0100000069
:04478400B10A00086E
:04478800890A000892
:10478C00010000001000000000127A000000000080
:10479C0003000000400200201C000020000000006C
:1047AC0040020020A802002010030020000000009E
:1047BC0000000000000000000000000000000000ED
:1047CC0000000000000000000000000000000000DD
:1047DC0000000000000000000000000000000000CD
:1047EC00000000000000000043000000000000007A
:1047FC0000000000000000000000000000000000AD
:10480C000000000000000000430000000000000059
:10481C00000000000000000000000000000000008C
:10482C000000000000000000430000000000000039
:10483C00000000000000000000000000000000006C
:10484C000000000000000000430000000000000019
:10485C00000000000000000000000000000000004C
:10486C0000000000000000004300000000000000F9
:10487C00000000000000000000000000000000002C
:10488C0000000000000000004300000000000000D9
:10489C00000000000000000000000000000000000C
:1048AC0000000000000000004300000000000000B9
:1048BC0000000000000000000000000000000000EC
:1048CC000000000000000000513E00082D3E0008D2
:1048DC0000000000784600082C45000869450008D7
:1048EC0069450008694500086945000869450008E4
:1048FC0069450008694500086945000869450008D4
:10490C00FFFFFFFFFFFFFFFFFFFFFFFFFFFF0000A9
:10491C000100415343494900000000000000000021
:10492C00000000000000000000000000000000007B
:10493C000000415343494900000000000000000002
:10494C00000000000000000000000000000000005B
:04495C000000000057
:04000005080017E9EF
:00000001FF
